{
    "contractName": "App",
    "abi": [
        {
            "inputs": [
                {
                    "internalType": "string",
                    "name": "_content",
                    "type": "string"
                }
            ],
            "name": "createPost",
            "outputs": [],
            "stateMutability": "nonpayable",
            "type": "function"
        },
        {
            "inputs": [
                {
                    "internalType": "string",
                    "name": "_name",
                    "type": "string"
                }
            ],
            "name": "createProfile",
            "outputs": [
                {
                    "internalType": "address",
                    "name": "",
                    "type": "address"
                }
            ],
            "stateMutability": "nonpayable",
            "type": "function"
        },
        {
            "inputs": [
                {
                    "internalType": "address",
                    "name": "_address",
                    "type": "address"
                }
            ],
            "name": "follow",
            "outputs": [],
            "stateMutability": "nonpayable",
            "type": "function"
        },
        {
            "inputs": [],
            "name": "getAddresses",
            "outputs": [
                {
                    "internalType": "address[]",
                    "name": "",
                    "type": "address[]"
                }
            ],
            "stateMutability": "view",
            "type": "function"
        },
        {
            "inputs": [
                {
                    "internalType": "address",
                    "name": "_address",
                    "type": "address"
                }
            ],
            "name": "getFollowers",
            "outputs": [
                {
                    "internalType": "address[]",
                    "name": "",
                    "type": "address[]"
                }
            ],
            "stateMutability": "view",
            "type": "function"
        },
        {
            "inputs": [
                {
                    "internalType": "address",
                    "name": "_address",
                    "type": "address"
                }
            ],
            "name": "getFollowing",
            "outputs": [
                {
                    "internalType": "address[]",
                    "name": "",
                    "type": "address[]"
                }
            ],
            "stateMutability": "view",
            "type": "function"
        },
        {
            "inputs": [],
            "name": "getPosts",
            "outputs": [
                {
                    "components": [
                        {
                            "internalType": "address",
                            "name": "author",
                            "type": "address"
                        },
                        {
                            "internalType": "string",
                            "name": "content",
                            "type": "string"
                        },
                        {
                            "internalType": "uint256",
                            "name": "timeCreated",
                            "type": "uint256"
                        },
                        {
                            "internalType": "uint256",
                            "name": "id",
                            "type": "uint256"
                        }
                    ],
                    "internalType": "struct App.Post[]",
                    "name": "",
                    "type": "tuple[]"
                }
            ],
            "stateMutability": "view",
            "type": "function"
        },
        {
            "inputs": [],
            "name": "getUserCount",
            "outputs": [
                {
                    "internalType": "uint256",
                    "name": "",
                    "type": "uint256"
                }
            ],
            "stateMutability": "view",
            "type": "function"
        },
        {
            "inputs": [
                {
                    "internalType": "address",
                    "name": "",
                    "type": "address"
                }
            ],
            "name": "profiles",
            "outputs": [
                {
                    "internalType": "address",
                    "name": "owner",
                    "type": "address"
                },
                {
                    "internalType": "string",
                    "name": "name",
                    "type": "string"
                },
                {
                    "internalType": "uint256",
                    "name": "timeCreated",
                    "type": "uint256"
                },
                {
                    "internalType": "uint256",
                    "name": "id",
                    "type": "uint256"
                }
            ],
            "stateMutability": "view",
            "type": "function"
        },
        {
            "inputs": [
                {
                    "internalType": "address",
                    "name": "_address",
                    "type": "address"
                }
            ],
            "name": "unfollow",
            "outputs": [],
            "stateMutability": "nonpayable",
            "type": "function"
        }
    ],
    "bytecode": "608060405234801561001057600080fd5b5061116d806100206000396000f3fe608060405234801561001057600080fd5b506004361061009e5760003560e01c8063b5cb15f711610066578063b5cb15f714610125578063bbe1562714610136578063c2fe202214610159578063c7303c611461016c578063d8236dff1461017f57600080fd5b8063015a4ead146100a3578063334c3f0e146100b857806341f3004a146100e85780634dbf27cc146100fd578063a39fac1214610110575b600080fd5b6100b66100b1366004610ce0565b610192565b005b6100cb6100c6366004610d10565b6103b5565b6040516001600160a01b0390911681526020015b60405180910390f35b6100f06105ab565b6040516100df9190610dc8565b6100b661010b366004610ce0565b6106c6565b6101186108cc565b6040516100df9190610e5e565b6000546040519081526020016100df565b610149610144366004610ce0565b61092e565b6040516100df9493929190610eab565b610118610167366004610ce0565b6109ea565b6100b661017a366004610d10565b610a60565b61011861018d366004610ce0565b610c2e565b336000908152600160205260409020546001600160a01b03166101d05760405162461bcd60e51b81526004016101c790610ee2565b60405180910390fd5b6001600160a01b038082166000908152600160205260409020548291166102095760405162461bcd60e51b81526004016101c790610f37565b816001600160a01b03811633036102325760405162461bcd60e51b81526004016101c790610f6e565b3360009081526004602090815260408083206001600160a01b038716845290915290205460ff1615156001146102c25760405162461bcd60e51b815260206004820152602f60248201527f4552524f523a203c596f7520616c726561647920646f206e6f7420666f6c6c6f60448201526e3b903a3434b990383937b334b6329f60891b60648201526084016101c7565b6001600160a01b038316600090815260026020908152604080832060048352818420338552909252909120600101548154811061030157610301610fb8565b6000918252602080832090910180546001600160a01b03191690556001600160a01b0385168083526005825260408084203385528352808420805460ff191690556003835280842060048452818520928552919092529120600101548154811061036d5761036d610fb8565b6000918252602080832090910180546001600160a01b03191690553382526004815260408083206001600160a01b0396909616835294905292909220805460ff191690555050565b6040805160008082526020820180845282519020909285928592916103de918591859101610fce565b60405160208183030381529060405280519060200120036104415760405162461bcd60e51b815260206004820152601e60248201527f4552524f523a203c496e7075742063616e6e6f7420626520656d7074793e000060448201526064016101c7565b336000818152600160205260409020546001600160a01b03161461055b576040518060800160405280336001600160a01b0316815260200186868080601f01602080910402602001604051908101604052809392919081815260200183838082843760009201829052509385525050436020808501919091528254604094850152338352600180825293909220845181546001600160a01b0319166001600160a01b039091161781559184015191928301916104fe915082611077565b5060408201516002820155606090910151600390910155600080546001810182558180527f290decd9548b62a8d60345a988386fc84ba6bc95484008f6362f93160ef3e5630180546001600160a01b0319163317905592506105a3565b60405162461bcd60e51b815260206004820152601d60248201527f596f7520616c7265616479206372656174656420612070726f66696c6500000060448201526064016101c7565b505092915050565b60606006805480602002602001604051908101604052809291908181526020016000905b828210156106bd57600084815260209081902060408051608081019091526004850290910180546001600160a01b03168252600181018054929391929184019161061890610ff4565b80601f016020809104026020016040519081016040528092919081815260200182805461064490610ff4565b80156106915780601f1061066657610100808354040283529160200191610691565b820191906000526020600020905b81548152906001019060200180831161067457829003601f168201915b5050505050815260200160028201548152602001600382015481525050815260200190600101906105cf565b50505050905090565b336000908152600160205260409020546001600160a01b03166106fb5760405162461bcd60e51b81526004016101c790610ee2565b6001600160a01b038082166000908152600160205260409020548291166107345760405162461bcd60e51b81526004016101c790610f37565b816001600160a01b038116330361075d5760405162461bcd60e51b81526004016101c790610f6e565b3360009081526004602090815260408083206001600160a01b038716845290915290205460ff1615156001036107e65760405162461bcd60e51b815260206004820152602860248201527f4552524f523a203c596f7520616c726561647920666f6c6c6f77207468697320604482015267383937b334b6329f60c11b60648201526084016101c7565b505060408051808201825260018082526001600160a01b03909316600081815260026020908152848220805482860190815284845260058352868420338086529084528785209651875490151560ff199182161788559151968901969096558154808901835591845282842090910180546001600160a01b031990811687179091558651808801885288815286855260038085528886208054838701908152988752600486528987208888528652988620915182549015159416939093178155955195880195909555815284549586018555938152929092209092018054909216179055565b6060600080548060200260200160405190810160405280929190818152602001828054801561092457602002820191906000526020600020905b81546001600160a01b03168152600190910190602001808311610906575b5050505050905090565b6001602081905260009182526040909120805491810180546001600160a01b039093169261095b90610ff4565b80601f016020809104026020016040519081016040528092919081815260200182805461098790610ff4565b80156109d45780601f106109a9576101008083540402835291602001916109d4565b820191906000526020600020905b8154815290600101906020018083116109b757829003601f168201915b5050505050908060020154908060030154905084565b6001600160a01b038116600090815260026020908152604091829020805483518184028101840190945280845260609392830182828015610a5457602002820191906000526020600020905b81546001600160a01b03168152600190910190602001808311610a36575b50505050509050919050565b336000908152600160205260409020546001600160a01b0316610a955760405162461bcd60e51b81526004016101c790610ee2565b6040805160008152602081018083528151902084928492610aba918591859101610fce565b6040516020818303038152906040528051906020012003610b1d5760405162461bcd60e51b815260206004820152601e60248201527f4552524f523a203c496e7075742063616e6e6f7420626520656d7074793e000060448201526064016101c7565b60006040518060800160405280336001600160a01b0316815260200186868080601f01602080910402602001604051908101604052809392919081815260200183838082843760009201829052509385525050436020808501919091526006805460409095018590526001850181559092525082517ff652222313e28459528d920b65115c16c04f3efc82aaedc97be59f3f377c0d3f600490930292830180546001600160a01b0319166001600160a01b0390921691909117815590830151929350839290917ff652222313e28459528d920b65115c16c04f3efc82aaedc97be59f3f377c0d400190610c109082611077565b50604082015181600201556060820151816003015550505050505050565b6001600160a01b03808216600090815260016020526040902054606091839116610c6a5760405162461bcd60e51b81526004016101c790610f37565b6001600160a01b03831660009081526003602090815260409182902080548351818402810184019094528084529091830182828015610cd257602002820191906000526020600020905b81546001600160a01b03168152600190910190602001808311610cb4575b505050505091505b50919050565b600060208284031215610cf257600080fd5b81356001600160a01b0381168114610d0957600080fd5b9392505050565b60008060208385031215610d2357600080fd5b823567ffffffffffffffff80821115610d3b57600080fd5b818501915085601f830112610d4f57600080fd5b813581811115610d5e57600080fd5b866020828501011115610d7057600080fd5b60209290920196919550909350505050565b6000815180845260005b81811015610da857602081850181015186830182015201610d8c565b506000602082860101526020601f19601f83011685010191505092915050565b60006020808301818452808551808352604092508286019150828160051b87010184880160005b83811015610e5057888303603f19018552815180516001600160a01b0316845287810151608089860181905290610e2882870182610d82565b838a0151878b0152606093840151939096019290925250509386019390860190600101610def565b509098975050505050505050565b6020808252825182820181905260009190848201906040850190845b81811015610e9f5783516001600160a01b031683529284019291840191600101610e7a565b50909695505050505050565b6001600160a01b0385168152608060208201819052600090610ecf90830186610d82565b6040830194909452506060015292915050565b60208082526035908201527f4552524f523a203c4d7573742063726561746520612070726f66696c6520746f604082015274103832b93337b936903a3434b99030b1ba34b7b71f60591b606082015260800190565b6020808252601f908201527f4552524f523a203c50726f66696c6520646f6573206e6f742065786973743e00604082015260600190565b6020808252602a908201527f4552524f52203c596f752063616e6e6f7420666f6c6c6f772f756e666f6c6c6f6040820152693b903cb7bab939b2b63360b11b606082015260800190565b634e487b7160e01b600052603260045260246000fd5b8183823760009101908152919050565b634e487b7160e01b600052604160045260246000fd5b600181811c9082168061100857607f821691505b602082108103610cda57634e487b7160e01b600052602260045260246000fd5b601f82111561107257600081815260208120601f850160051c8101602086101561104f5750805b601f850160051c820191505b8181101561106e5782815560010161105b565b5050505b505050565b815167ffffffffffffffff81111561109157611091610fde565b6110a58161109f8454610ff4565b84611028565b602080601f8311600181146110da57600084156110c25750858301515b600019600386901b1c1916600185901b17855561106e565b600085815260208120601f198616915b82811015611109578886015182559484019460019091019084016110ea565b50858210156111275787850151600019600388901b60f8161c191681555b5050505050600190811b0190555056fea26469706673582212201e3cf70c89a5d569a2c70449c404b379e2b19bf1ce8ab31dd2ea4b6e9cb7465664736f6c63430008110033",
    "sourcePath": "c:/Users/45loc/OneDrive/Desktop/new/src/smartcontracts/main.sol",
    "compiler": {
        "name": "solc",
        "version": "0.8.17+commit.8df45f5f"
    },
    "functionHashes": {
        "createPost(string)": "c7303c61",
        "createProfile(string)": "334c3f0e",
        "follow(address)": "4dbf27cc",
        "getAddresses()": "a39fac12",
        "getFollowers(address)": "c2fe2022",
        "getFollowing(address)": "d8236dff",
        "getPosts()": "41f3004a",
        "getUserCount()": "b5cb15f7",
        "profiles(address)": "bbe15627",
        "unfollow(address)": "015a4ead"
    },
    "gasEstimates": {
        "creation": {
            "codeDepositCost": "892200",
            "executionCost": "929",
            "totalCost": "893129"
        },
        "external": {
            "createPost(string)": "infinite",
            "createProfile(string)": "infinite",
            "follow(address)": "201592",
            "getAddresses()": "infinite",
            "getFollowers(address)": "infinite",
            "getFollowing(address)": "infinite",
            "getPosts()": "infinite",
            "getUserCount()": "2280",
            "profiles(address)": "infinite",
            "unfollow(address)": "113215"
        }
    }
}